{
  "contractName": "Timelock",
  "abi": [
    {
      "inputs": [
        {
          "internalType": "address payable",
          "name": "_owner",
          "type": "address"
        }
      ],
      "stateMutability": "nonpayable",
      "type": "constructor"
    },
    {
      "inputs": [],
      "name": "duration",
      "outputs": [
        {
          "internalType": "uint256",
          "name": "",
          "type": "uint256"
        }
      ],
      "stateMutability": "view",
      "type": "function"
    },
    {
      "inputs": [],
      "name": "end",
      "outputs": [
        {
          "internalType": "uint256",
          "name": "",
          "type": "uint256"
        }
      ],
      "stateMutability": "view",
      "type": "function"
    },
    {
      "inputs": [],
      "name": "owner",
      "outputs": [
        {
          "internalType": "address payable",
          "name": "",
          "type": "address"
        }
      ],
      "stateMutability": "view",
      "type": "function"
    },
    {
      "stateMutability": "payable",
      "type": "receive"
    },
    {
      "inputs": [
        {
          "internalType": "address",
          "name": "token",
          "type": "address"
        },
        {
          "internalType": "uint256",
          "name": "amount",
          "type": "uint256"
        }
      ],
      "name": "deposit",
      "outputs": [],
      "stateMutability": "nonpayable",
      "type": "function"
    },
    {
      "inputs": [
        {
          "internalType": "address",
          "name": "token",
          "type": "address"
        },
        {
          "internalType": "uint256",
          "name": "amount",
          "type": "uint256"
        }
      ],
      "name": "withdraw",
      "outputs": [],
      "stateMutability": "nonpayable",
      "type": "function"
    }
  ],
  "bytecode": "0x60c060405234801561001057600080fd5b506040516109aa3803806109aa833981810160405281019061003291906100e5565b6276a70042610041919061014b565b608081815250508073ffffffffffffffffffffffffffffffffffffffff1660a08173ffffffffffffffffffffffffffffffffffffffff1681525050506101a1565b600080fd5b600073ffffffffffffffffffffffffffffffffffffffff82169050919050565b60006100b282610087565b9050919050565b6100c2816100a7565b81146100cd57600080fd5b50565b6000815190506100df816100b9565b92915050565b6000602082840312156100fb576100fa610082565b5b6000610109848285016100d0565b91505092915050565b6000819050919050565b7f4e487b7100000000000000000000000000000000000000000000000000000000600052601160045260246000fd5b600061015682610112565b915061016183610112565b9250827fffffffffffffffffffffffffffffffffffffffffffffffffffffffffffffffff038211156101965761019561011c565b5b828201905092915050565b60805160a0516107c86101e2600039600081816101bb015281816102030152818161032901526103b10152600081816101df015261029101526107c86000f3fe60806040526004361061004e5760003560e01c80630fb5a6b41461005a57806347e7ef24146100855780638da5cb5b146100ae578063efbe1c1c146100d9578063f3fef3a31461010457610055565b3661005557005b600080fd5b34801561006657600080fd5b5061006f61012d565b60405161007c9190610450565b60405180910390f35b34801561009157600080fd5b506100ac60048036038101906100a791906104fa565b610134565b005b3480156100ba57600080fd5b506100c36101b9565b6040516100d0919061055b565b60405180910390f35b3480156100e557600080fd5b506100ee6101dd565b6040516100fb9190610450565b60405180910390f35b34801561011057600080fd5b5061012b600480360381019061012691906104fa565b610201565b005b6276a70081565b8173ffffffffffffffffffffffffffffffffffffffff166323b872dd3330846040518463ffffffff1660e01b815260040161017193929190610585565b6020604051808303816000875af1158015610190573d6000803e3d6000fd5b505050506040513d601f19601f820116820180604052508101906101b491906105f4565b505050565b7f000000000000000000000000000000000000000000000000000000000000000081565b7f000000000000000000000000000000000000000000000000000000000000000081565b7f000000000000000000000000000000000000000000000000000000000000000073ffffffffffffffffffffffffffffffffffffffff163373ffffffffffffffffffffffffffffffffffffffff161461028f576040517f08c379a00000000000000000000000000000000000000000000000000000000081526004016102869061067e565b60405180910390fd5b7f00000000000000000000000000000000000000000000000000000000000000004210156102f2576040517f08c379a00000000000000000000000000000000000000000000000000000000081526004016102e9906106ea565b60405180910390fd5b600073ffffffffffffffffffffffffffffffffffffffff168273ffffffffffffffffffffffffffffffffffffffff161415610393577f000000000000000000000000000000000000000000000000000000000000000073ffffffffffffffffffffffffffffffffffffffff166108fc829081150290604051600060405180830381858888f1935050505015801561038d573d6000803e3d6000fd5b50610433565b8173ffffffffffffffffffffffffffffffffffffffff1663a9059cbb7f0000000000000000000000000000000000000000000000000000000000000000836040518363ffffffff1660e01b81526004016103ee929190610769565b6020604051808303816000875af115801561040d573d6000803e3d6000fd5b505050506040513d601f19601f8201168201806040525081019061043191906105f4565b505b5050565b6000819050919050565b61044a81610437565b82525050565b60006020820190506104656000830184610441565b92915050565b600080fd5b600073ffffffffffffffffffffffffffffffffffffffff82169050919050565b600061049b82610470565b9050919050565b6104ab81610490565b81146104b657600080fd5b50565b6000813590506104c8816104a2565b92915050565b6104d781610437565b81146104e257600080fd5b50565b6000813590506104f4816104ce565b92915050565b600080604083850312156105115761051061046b565b5b600061051f858286016104b9565b9250506020610530858286016104e5565b9150509250929050565b600061054582610470565b9050919050565b6105558161053a565b82525050565b6000602082019050610570600083018461054c565b92915050565b61057f81610490565b82525050565b600060608201905061059a6000830186610576565b6105a76020830185610576565b6105b46040830184610441565b949350505050565b60008115159050919050565b6105d1816105bc565b81146105dc57600080fd5b50565b6000815190506105ee816105c8565b92915050565b60006020828403121561060a5761060961046b565b5b6000610618848285016105df565b91505092915050565b600082825260208201905092915050565b7f596f7520617265206e6f7420746865206f776e65720000000000000000000000600082015250565b6000610668601583610621565b915061067382610632565b602082019050919050565b600060208201905081810360008301526106978161065b565b9050919050565b7f446f6e74206265206772656564792c20796f7520617265206561726c79000000600082015250565b60006106d4601d83610621565b91506106df8261069e565b602082019050919050565b60006020820190508181036000830152610703816106c7565b9050919050565b6000819050919050565b600061072f61072a61072584610470565b61070a565b610470565b9050919050565b600061074182610714565b9050919050565b600061075382610736565b9050919050565b61076381610748565b82525050565b600060408201905061077e600083018561075a565b61078b6020830184610441565b939250505056fea2646970667358221220f64cf6fcfe8aa115e0c3be663f3b13de04715e8111cf36068b3e97efb697452f64736f6c634300080a0033",
  "immutableReferences": {
    "735": [
      {
        "length": 32,
        "start": 479
      },
      {
        "length": 32,
        "start": 657
      }
    ],
    "737": [
      {
        "length": 32,
        "start": 443
      },
      {
        "length": 32,
        "start": 515
      },
      {
        "length": 32,
        "start": 809
      },
      {
        "length": 32,
        "start": 945
      }
    ]
  },
  "source": "// SPDX-License-Identifier: MIT\n// Quadratic.sol\npragma solidity 0.8.10;\n//import \"./Register.sol\";\n//import \"./MatchPoolData.sol\";\nimport \"@openzeppelin/contracts/token/ERC20/ERC20.sol\";\ncontract Timelock\n{\n    uint public constant duration = 90 days;\n    uint public immutable end;\n    address payable public immutable owner;\n\n    constructor(address payable _owner)\n    {\n        end= block.timestamp + duration;\n        owner= _owner;\n    }\n\n    function deposit(address token, uint amount) external{\n        IERC20(token).transferFrom(msg.sender, address(this),amount);\n    }\n    \n    receive() external payable {}\n\n    function withdraw(address token,uint amount) external{\n        require(msg.sender==owner,\"You are not the owner\");\n        require(block.timestamp>=end,\"Dont be greedy, you are early\");\n        if(token==address(0)){\n            owner.transfer(amount);\n        }else{\n            IERC20(token).transfer(owner,amount);\n        }\n    }\n}",
  "sourcePath": "/Users/abhishekgadekar/Polygon-Frontend/QF1/contracts/NgoTimelock.sol",
  "compiler": {
    "name": "solc",
    "version": "0.8.10+commit.fc410830.Emscripten.clang"
  },
  "schemaVersion": "3.4.3",
  "updatedAt": "2021-12-11T20:05:07.486Z",
  "devdoc": {
    "kind": "dev",
    "methods": {},
    "version": 1
  },
  "userdoc": {
    "kind": "user",
    "methods": {},
    "version": 1
  }
}